:040000001CEF3EF0C3
:107C380000011FEF3EF0000E956E9468C20ED56EDF
:107C4800000E836EFF0E826E82CF01F0026A82A060
:107C58000DD082A246D082A484D082A8C4D082AAA1
:107C680004D182AC44D182AE84D1ECD7000E046E2C
:107C7800000E036E04BE06D00450E2E1140E035C4D
:107C8800D8B0DED7010E836E000E066E000E056EAC
:107C980006BE06D006500CE1130E055CD8B008D01D
:107CA800F40ED66EF2A4FED7F294054A062AF0D74F
:107CB800000E836E000E066E000E056E06BE06D020
:107CC80006500CE1130E055CD8B008D0F40ED66E41
:107CD800F2A4FED7F294054A062AF0D7034A042AEA
:107CE800C9D7000E046E000E036E04BE06D0045001
:107CF800A7E1140E035CD8B0A3D7010E836E000E63
:107D0800066E000E056E06BE06D006500CE1110E7A
:107D1800055CD8B008D0F40ED66EF2A4FED7F29463
:107D2800054A062AF0D7000E836E000E066E000E76
:107D3800056E06BE06D006500CE1110E055CD8B0E3
:107D480008D0F40ED66EF2A4FED7F294054A062A9D
:107D5800F0D7034A042A04BED0D7045001E1C9D79A
:107D68006FD7000E046E000E036E04BE08D00450D8
:107D780005E1140E035CD8B063D701D061D7010EBA
:107D8800836E000E066E000E056E06BE06D0065007
:107D98000CE10F0E055CD8B008D0F40ED66EF2A434
:107DA800FED7F294054A062AF0D7000E836E000E1D
:107DB800066E000E056E06BE06D006500CE10F0ECC
:107DC800055CD8B008D0F40ED66EF2A4FED7F294B3
:107DD800054A062AF0D7034A042A04BED0D704501D
:107DE80001E1C7D72DD7000E046E000E036E04BE46
:107DF80008D0045005E1140E035CD8B021D701D097
:107E08001FD7010E836E000E066E000E056E06BEAD
:107E180006D006500CE10E0E055CD8B008D0F40E62
:107E2800D66EF2A4FED7F294054A062AF0D7000EC1
:107E3800836E000E066E000E056E06BE06D0065056
:107E48000CE10E0E055CD8B008D0F40ED66EF2A484
:107E5800FED7F294054A062AF0D7034A042A04BE3C
:107E6800D0D7045001E1C7D7EBD6000E046E000E40
:107E7800036E04BE08D0045005E1140E035CD8B0AC
:107E8800DFD601D0DDD6010E836E000E066E000E21
:107E9800056E06BE06D006500CE10D0E055CD8B086
:107EA80008D0F40ED66EF2A4FED7F294054A062A3C
:107EB800F0D7000E836E000E066E000E056E06BE2D
:107EC80006D006500CE10D0E055CD8B008D0F40EB3
:107ED800D66EF2A4FED7F294054A062AF0D7034AD2
:107EE800042A04BED0D7045001E1C7D7A9D6000E92
:107EF800046E000E036E04BE08D0045005E1140E93
:107F0800035CD8B09DD601D09BD6010E836E000EBF
:107F1800066E000E056E06BE06D006500CE10B0E6E
:107F2800055CD8B008D0F40ED66EF2A4FED7F29451
:107F3800054A062AF0D7000E836E000E066E000E64
:107F4800056E06BE06D006500CE10B0E055CD8B0D7
:107F580008D0F40ED66EF2A4FED7F294054A062A8B
:107F6800F0D7034A042A04BED0D7045001E1C7D78A
:107F780067D6000E046E000E036E04BE08D00450CF
:107F880005E1140E035CD8B05BD601D059D6010EBA
:107F9800836E000E066E000E056E06BE06D00650F5
:107FA8000CE10A0E055CD8B008D0F40ED66EF2A427
:107FB800FED7F294054A062AF0D7000E836E000E0B
:107FC800066E000E056E06BE06D006500CE10A0EBF
:107FD800055CD8B008D0F40ED66EF2A4FED7F294A1
:107FE800054A062AF0D7034A042A04BED0D704500B
:087FF80001E1C7D725D6FFD730
:020000040020DA
:08000000FFFFFFFFFFFFFFFF00
:020000040030CA
:0E000000000C1F1EFF8385FF0FC00FE00F4096
:00000001FF
